S01900004D6173696E7574615F4175746F6E6F6D612E7372656326
S11300000C942A000C9447000C9447000C9447006D
S11300100C9430030C9447000C9447000C94470054
S11300200C9447000C9447000C9407030C9447006D
S11300300C9447000C9447000C9447000C94470020
S11300400C94E4020C9447000C9447000C94470071
S11300500C94470011241FBECFE5D8E0DEBFCDBF0E
S113006015E0A0E6B0E0EAE1F2E102C005900D92ED
S1130070AC39B107D9F727E0ACE9B5E001C01D926E
S1130080A536B207E1F70E94A3060C940B090C9461
S113009000000895CF92DF92EF92FF920F931F9387
S11300A0CF93DF93C0905307D0905407E090550747
S11300B0F0905607C701B6010E948E07C091AF05A4
S11300C0D091B0050AE010E0CB01B8010E94E3082A
S11300D0605D6E8F805D8F8F20E030E048EC52E4ED
S11300E0C701B6010E9476080E948E07CB01B801B1
S11300F00E94E308282FCB01B8010E94E308805D29
S113010089A3205D2AA3C0904F07D0905007E090A8
S11301105107F0905207C701B6010E948E07CB0128
S1130120B8010E94E308605D69AB805D8AAB20E0A2
S113013030E048EC52E4C701B6010E9476080E9400
S11301408E07CB01B8010E94E308282FCB01B80128
S11301500E94E308805D8CAB205D2DABDF91CF91D5
S11301601F910F91FF90EF90DF90CF900895FC01C5
S113017001900020E9F731979F01281B390B1216D3
S113018013069CF4280F391FFC01681B790BCB0163
S11301908E0F9F1FA091AF05B091B005A80FB91F96
S11301A081918C93E217F30791F708956AE070E068
S11301B00E94E308CB0118161906ACF4685D7F4F62
S11301C028E230E04BEDE091AF05F091B005E20F8D
S11301D0F31F40832F5F3F4F62177307A1F78D33DF
S11301E091051CF0089580E090E020E2E091AF05D5
S11301F0F091B005E80FF91F20A701968D33910502
S1130200ACF308958091A905813099F138F08230DA
S113021009F4F4C0833009F40BC1089588E691E031
S11302209093B0058093AF05E0916200F091630074
S11302302091A2053091A305CF01880F991F63E097
S113024070E00E94E3086217730764F488EB91E09E
S11302509093B0058093AF05E217F3071CF481E097
S11302608093A9052F5F3F4F3093A3052093A205E8
S1130270089588E191E09093B0058093AF050E94C2
S113028081038093AA052091A0053091A105213016
S11302903105F1F420919E0530919F0525303105FB
S11302A074F48A3039F42F5F3F4F30939F052093C5
S11302B09E05089510929F0510929E050895109230
S11302C09F0510929E051092A1051092A005089515
S11302D08E33B1F581E090E09093A1058093A00561
S11302E080916000909161008130910569F482E011
S11302F090E090936100809360006DE370E089E486
S113030095E00E94B7000895029769F483E090E0B5
S113031090936100809360006DE370E08CE595E05C
S11303200E94B700089581E090E09093610080936B
S113033060006DE370E080E795E00E94B7000895E7
S11303408C33B1F581E090E09093A1058093A005F2
S113035080916000909161008130910569F483E09F
S113036090E090936100809360006DE370E08CE511
S113037095E00E94B7000895029769F481E090E047
S113038090936100809360006DE370E080E795E0F6
S11303900E94B700089582E090E0909361008093FA
S11303A060006DE370E084E895E00E94B700089572
S11303B08534C1F481E090E09093A1058093A00579
S11303C080916000909161008130910521F482E078
S11303D08093A9050895029709F0C0C083E0809333
S11303E0A9050895883709F0B9C081E090E0909399
S11303F0A1058093A0058093A90508950E94810317
S11304008093AA0588EC90E09093B0058093AF05A3
S11304100E944A008091AA05883709F09FC081E0B4
S113042090E09093A1058093A0058093A905089579
S113043088E790E09093B0058093AF0580919C0588
S113044090919D059C01992314F42F5F3F4F35959E
S113045027952436310541F4E8E7F0E081E3848F01
S113046080E3858F868F11C0E8E7F0E040E2448F97
S113047064E170E00E94E308605D658FC9016AE091
S113048070E00E94E308805D868F80919C059091C6
S11304909D050E94D6000E9481038093AA052091A5
S11304A0A0053091A10521303105F1F420919E057C
S11304B030919F052530310574F48A3039F42F5F6B
S11304C03F4F30939F0520939E05089510929F05FA
S11304D010929E05089510929F0510929E05109209
S11304E0A1051092A00508958E3599F481E090E05D
S11304F09093A1058093A00580919C0590919D0502
S1130500883C91052CF50A9690939D0580939C0553
S11305101FC08F3399F481E090E09093A1058093FC
S1130520A00580919C0590919D051816190684F4E8
S11305300A9790939D0580939C050AC0883741F4DF
S113054081E090E09093A1058093A0058093A90594
S113055080919C0590919D050E949B0508950E94A1
S1130560020108958FEF87BB81BB1ABA88EF8BBB5A
S113057082EC84BB8BE083BF8AEF8CBF8BE18EBDA2
S113058082EA8FBD84EC99E097BD86BD8BEB90E049
S11305909BBD8ABD19BC18BC8FE085BD8CE983BDA9
S11305A089B7806889BF89B7826089BF80E886B9C6
S11305B086B1886686B910BE81E090E09093A50567
S11305C08093A405789408951F920F920FB60F920A
S11305D011248F939F938091A4059091A505019771
S11305E079F484B195B19093AC058093AB0581E423
S11305F087B9369A82E090E09093A5058093A4058C
S11306009F918F910F900FBE0F901F9018951F927E
S11306100F920FB60F9211242F933F934F935F9332
S11306206F937F938F939F93AF93BF93EF93FF93B6
S11306300E94A006FF91EF91BF91AF919F918F917E
S11306407F916F915F914F913F912F910F900FBECA
S11306500F901F9018950E94AF020E94980508956C
S11306601F920F920FB60F9211242F933F934F9323
S11306705F936F937F938F939F93AF93BF93EF9306
S1130680FF930E942B03FF91EF91BF91AF919F9134
S11306908F917F916F915F914F913F912F910F9027
S11306A00FBE0F901F90189588E691E09093B005C7
S11306B08093AF05089589B3887F803F99F089B30B
S11306C0887F883E91F089B3887F883D89F089B31B
S11306D0887F883B81F089B3887F883779F08AE006
S11306E090E0089580E090E0089581E090E008951E
S11306F082E090E0089583E090E0089584E090E043
S113070008958AE995E0209127023091280221304A
S11307103105B1F482B38EE082BB0E945B039093F7
S1130720600780935F078A30910549F0880F991F0D
S1130730880F991FFC01EC59FF4F838101C08AE0A7
S1130740209127023091280222303105B1F482B37E
S11307508DE082BB0E945B039093600780935F07E8
S11307608A30910549F0880F991F880F991FFC0161
S1130770EC59FF4F828101C08AE020912702309119
S1130780280223303105B1F482B38BE082BB0E948E
S11307905B039093600780935F078A30910549F06B
S11307A0880F991F880F991FFC01EC59FF4F818115
S11307B001C08AE0209127023091280224303105BB
S11307C0D1F482B387E082BB0E945B0390936007FD
S11307D080935F078A30910549F0880F991F880F2D
S11307E0991FFC01EC59FF4F808101C08AE01092EF
S11307F028021092270220912702309128022F5FAD
S11308003F4F309328022093270208954F925F921E
S11308106F927F928F929F92AF92BF92CF92DF920C
S1130820EF92FF920F931F93CF93DF93CDB7DEB771
S11308302E970FB6F894DEBF0FBECDBF6091AB0507
S11308407091AC05072E000C880B990B0E94C6070B
S113085020E030E040EA50E40E94760820E030E0F6
S113086040E85AE30E94760869837A838B839C83E9
S113087060935B0770935C0780935D0790935E07BA
S11308806091AD057091AE05072E000C880B990B95
S11308900E94C60720E030E040EA50E40E94760857
S11308A020E030E040E85AE30E9476082B013C0146
S11308B06093610770936207809363079093640762
S11308C0C0902D02D0902E02E0902F02F0903002C2
S11308D0A701960169817A818B819C810E94170707
S11308E08823ECF401E312E021E030E03E832D8321
S11308F04D815E814F5F5F4F5E834D83D8018D9044
S11309009D90AD90BD908D01A501940169817A817E
S11309108B819C810E941707882354F306C04601EB
S1130920570121E030E03E832D838D819E81019724
S11309304D815E81440F551F440F551F47545C4F32
S1130940DA012D913D914D915C9129873A874B872E
S11309505C87FC01EE0FFF1FEE0FFF1FFE87ED8784
S1130960E754FC4F60817181828193810E94AA06C1
S11309706D837E838F8398872D853E85275D3D4FCC
S11309803E872D87A5019401AD85BE856D917D912E
S11309908D919C910E94AA069B01AC016D817E8180
S11309A08F8198850E941C076D837E838F8398872F
S11309B0A501940169817A818B819C810E94AA0698
S11309C09B01AC016D817E818F8198850E947608A0
S11309D029853A854B855C850E94AB066093530755
S11309E0709354078093550790935607A701960177
S11309F0C301B2010E9417078823DCF401E312E06B
S1130A00E1E0F0E0FA83E98329813A812F5F3F4FE7
S1130A103A832983D801CD90DD90ED90FD908D012E
S1130A20A7019601C301B2010E941707882364F34A
S1130A3004C021E030E03A83298389819A810197B7
S1130A4049815A81440F551F440F551F47545C4F29
S1130A50DA018D909D90AD90BC90FC01EE0FFF1FCC
S1130A60EE0FFF1FFE83ED83E754FC4FA5019401B5
S1130A7060817181828193810E94AA0669837A834D
S1130A808B839C832D813E81275D3D4F3E832D8347
S1130A90A7019601AD81BE816D917D918D919C914F
S1130AA00E94AA069B01AC0169817A818B819C8199
S1130AB00E941C0769837A838B839C83A701960118
S1130AC0C301B2010E94AA069B01AC0169817A812B
S1130AD08B819C810E947608A50194010E94AB063B
S1130AE060934F0770935007809351079093520778
S1130AF08091A7059091A80501969093A8058093ED
S1130B00A7052E960FB6F894DEBF0FBECDBFDF91BA
S1130B10CF911F910F91FF90EF90DF90CF90BF90F6
S1130B20AF909F908F907F906F905F904F900895BB
S1130B300E94060408959C01220F331F820F931F05
S1130B40880F991F880F991F99BD88BD08950F9329
S1130B501F93CF93DF93E1EBF5E00091AF05109184
S1130B60B00521EF36E0C801DF0166E052E0EC0198
S1130B7048814C9311966C9311974991CE0112962A
S1130B804C93129713965C9313971496A217B3077A
S1130B9071F742E892E0D8018C9180834183E801A7
S1130BA089918E01828393833496E217F30799F730
S1130BB080912602833009F444C028F4813061F026
S1130BC08230A1F1A7C0853009F470C008F463C075
S1130BD0863009F495C09EC0E091A605F0E0EE0FC2
S1130BE0FF1FEC5EFD4F808188BB85B3E091A605B5
S1130BF0F0E0EE0FFF1FEC5EFD4F9181927C8D7350
S1130C00892B85BB8091A605893060F082E08093B2
S1130C10260282E390E09093F6068093F506109204
S1130C20A60584C08F5F8093A60574C08091F506E5
S1130C309091F606892B09F079C083E0809326020F
S1130C407AC0E091A605F0E0EE0FFF1FE85FFD4FCC
S1130C50808188BB85B3E091A605F0E0EE0FFF1F0D
S1130C60E85FFD4F9181927C8D73892B85BB8091C8
S1130C70A605863060F084E08093260282E390E04B
S1130C809093F6068093F5061092A6054FC08F5FE9
S1130C908093A6053FC08091F5069091F606892BB6
S1130CA009F044C085E08093260245C0E091A60582
S1130CB0F0E0EE0FFF1FEF54FA4F808188BB85B33D
S1130CC0E091A605F0E0EE0FFF1FEF54FA4F91817B
S1130CD0927C8D73892B85BB8091A605803A60F048
S1130CE086E08093260284E690E09093F606809353
S1130CF0F5061092A6051AC08F5F8093A6050AC058
S1130D008091F5069091F606892B81F485E0809315
S1130D10260211C08091F5069091F606009759F0CD
S1130D2001979093F6068093F50605C08091F50629
S1130D309091F606F5CFDF91CF911F910F91089511
S1130D400E94A70508950E94B2020E9454030E94C3
S1130D504900FFCF5058BB27AA270E94C2060C9413
S1130D603C080E942E0838F00E94350820F039F41F
S1130D709F3F19F426F40C942B080EF4E095E7FB3E
S1130D800C942508E92F0E944D0858F3BA176207FE
S1130D9073078407950720F079F4A6F50C946F087F
S1130DA00EF4E0950B2EBA2FA02D0B01B901900182
S1130DB00C01CA01A0011124FF27591B99F0593FC6
S1130DC050F4503E68F11A16F040A22F232F342F0E
S1130DD04427585FF3CF469537952795A795F0405C
S1130DE05395C9F77EF41F16BA0B620B730B840B71
S1130DF0BAF09150A1F0FF0FBB1F661F771F881F29
S1130E00C2F70EC0BA0F621F731F841F48F4879580
S1130E1077956795B795F7959E3F08F0B0CF939572
S1130E20880F08F09927EE0F9795879508950E94EB
S1130E30010808F481E008950E9430070C943C08EE
S1130E400E94350858F00E942E0840F029F45F3FB4
S1130E5029F00C94250851110C9470080C942B085B
S1130E600E944D0868F39923B1F3552391F3951B20
S1130E70550BBB27AA2762177307840738F09F5FB7
S1130E805F4F220F331F441FAA1FA9F335D00E2E24
S1130E903AF0E0E832D091505040E695001CCAF791
S1130EA02BD0FE2F29D0660F771F881FBB1F261754
S1130EB037074807AB07B0E809F0BB0B802DBF012B
S1130EC0FF2793585F4F3AF09E3F510578F00C94FA
S1130ED025080C9470085F3FE4F3983ED4F386959C
S1130EE077956795B795F7959F5FC9F7880F911D1B
S1130EF09695879597F90895E1E0660F771F881F07
S1130F00BB1F621773078407BA0720F0621B730BB9
S1130F10840BBA0BEE1F88F7E09508950E9495079D
S1130F206894B1110C94700808950E94550888F0D3
S1130F309F5798F0B92F9927B751B0F0E1F0660F99
S1130F40771F881F991F1AF0BA95C9F714C0B130DA
S1130F5091F00E946F08B1E008950C946F08672F18
S1130F60782F8827B85F39F0B93FCCF38695779509
S1130F706795B395D9F73EF49095809570956195F2
S1130F807F4F8F4F9F4F0895E89409C097FB3EF41D
S1130F9090958095709561957F4F8F4F9F4F9923C2
S1130FA0A9F0F92F96E9BB279395F6958795779540
S1130FB06795B795F111F8CFFAF4BB0F11F460FF00
S1130FC01BC06F5F7F4F8F4F9F4F16C0882311F058
S1130FD096E911C0772321F09EE8872F762F05C06C
S1130FE0662371F096E8862F70E060E02AF09A9507
S1130FF0660F771F881FDAF7880F9695879597F9FC
S11310000895990F0008550FAA0BE0E8FEEF161695
S11310101706E807F907C0F012161306E407F507E8
S113102098F0621B730B840B950B39F40A2661F05C
S1131030232B242B252B21F408950A2609F4A140FF
S1131040A6958FEF811D811D089597F99F6780E80C
S113105070E060E008959FEF80EC089500240A9406
S11310601616170618060906089500240A9412167F
S11310701306140605060895092E0394000C11F4B2
S1131080882352F0BB0F40F4BF2B11F460FF04C05F
S11310906F5F7F4F8F4F9F4F089557FD9058440FB8
S11310A0551F59F05F3F71F04795880F97FB991FC3
S11310B061F09F3F79F08795089512161306140680
S11310C0551FF2CF4695F1DF08C01616170618060D
S11310D0991FF1CF86957105610508940895E894E8
S11310E0BB2766277727CB0197F908950E948908C3
S11310F00C943C080E942E0838F00E94350820F019
S1131100952311F00C9425080C942B0811240C94AD
S113111070080E944D0870F3959FC1F3950F50E03D
S1131120551F629FF001729FBB27F00DB11D639F95
S1131130AA27F00DB11DAA1F649F6627B00DA11D3B
S1131140661F829F2227B00DA11D621F739FB00DE1
S1131150A11D621F839FA00D611D221F749F332751
S1131160A00D611D231F849F600D211D822F762FEA
S11311706A2F11249F5750409AF0F1F088234AF0C7
S1131180EE0FFF1FBB1F661F771F881F9150504033
S1131190A9F79E3F510580F00C9425080C94700823
S11311A05F3FE4F3983ED4F3869577956795B795BA
S11311B0F795E7959F5FC1F7FE2B880F911D9695D4
S11311C0879597F9089597FB072E16F4009407D096
S11311D077FD09D00E94F70807FC05D03EF49095EE
S11311E081959F4F0895709561957F4F0895AA1B2F
S11311F0BB1B51E107C0AA1FBB1FA617B70710F0FE
S1131200A61BB70B881F991F5A95A9F7809590952F
S10D1210BC01CD010895F894FFCF4E
S113121A010058024646232A3132335E3435363FBA
S113122A373839783C303E45202020205075746583
S113123A7265204D6F746F72202020202020202098
S113124A20202020207878252020202020202020DB
S113125A2020202020202020202020202020202080
S113126A2020202020202020202020202020202070
S113127A202020202020202020496E666F726D6174
S113128A746969204D6173696E6120202044726516
S113129A617074613A2078782C797920636D202002
S11312AA205374616E67613A2078782C79792063C7
S11312BA6D2020202054656D7065726174757261A9
S11312CA3A2078782C79304320202042696E6520B0
S11312DA61692076656E69742120202020202020EF
S11312EA20202020202020202020202020202020F0
S11312FA20202020202020416E647265692020204D
S113130A202020202020203C20496E666F726D61C7
S113131A746969203E2020202020204D6173696E63
S113132A61204175746F6E6F6D612020202020202A
S113133A202020202020202020202020202020209F
S113134A202020202020202020202020202020208F
S113135A2020202020202020202020202020763217
S113136A2E30203230313920202020202020202005
S113137A202020202020202020202020202020205F
S113138A202020202020202020202020202020204F
S113139A202020202020202020202020202020203F
S11313AA202020202020202020202020202020202F
S11313BA202020202020202001800100018001809B
S11313CA018021803880380038800C800C000C8021
S11313DA0680060006800101009A99494052B83EE7
S11313EA40EC512840A4701D40A4700D403D0A07EA
S11313FA40333303409A99F93F0AD7E33F713DCA10
S113140A3F8FC2B53FCDCCAC3F5C8FA23FE17A940B
S113141A3FB81E853FEC51783F6666663FF6285C06
S113142A3F85EB513FB81E453F0000403F8FC23510
S113143A3F3333333F0AD7233FF6281C3F3D0A176D
S113144A3F85EB113F713D0A3F14AE073F00000090
S113145A000000000000000000000000000000007E
S113146A000000000000000000000000000000006E
S113147A000000000000000000000000000000005E
S113148A000000000000000000000000000000004E
S113149A000000000000000000000000000000003E
S11314AA000000000000000000000000000000002E
S11314BA000000000000000000000000000000001E
S11314CA000000000000000000000000000000000E
S11314DA00000000000000000000000000000000FE
S11314EA00000000000000000000000000000000EE
S11314FA00000000000000000000000000000000DE
S113150A00000000000000000000000000000000CD
S113151A00000000000000000000000000000000BD
S113152A00000000000000000000000000000000AD
S113153A000000000000000000000000000000009D
S113154A000000000000000000000000000000008D
S113155A000000000000000000000000000000007D
S113156A000000000000000000CDCCB440295CD784
S113157A40F62804417B1412418FC22D4114AE3B1C
S113158A4152B84241D7A35041A4706541295C89AC
S113159A413D0A99413333A541CDCCB441A470CB22
S11315AA413D0AE941F62804427B141242D7A31B9F
S11315BA4214AE2842713D324266663E4252B849EE
S11315CA42CDCC524248E169429A997242B81E818C
S11315DA42A4F088429A998E42142E9D4200000039
S11315EA00000000000000000000000000000000ED
S11315FA00000000000000000000000000000000DD
S113160A00000000000000000000000000000000CC
S113161A00000000000000000000000000000000BC
S113162A00000000000000000000000000000000AC
S113163A000000000000000000000000000000009C
S113164A000000000000000000000000000000008C
S113165A000000000000000000000000000000007C
S113166A000000000000000000000000000000006C
S113167A000000000000000000000000000000005C
S113168A000000000000000000000000000000004C
S113169A000000000000000000000000000000003C
S11316AA000000000000000000000000000000002C
S11316BA000000000000000000000000000000001C
S11316CA000000000000000000000000000000000C
S11316DA00000000000000000000000000000000FC
S11316EA00000000000000000000000000000000EC
S11316FA000000000000000000202020203C204DB3
S113170A6F746F72203E2020202020003C205465F4
S113171A7374617265204C756D696E69203E200090
S113172A20203C20496E666F726D61746969203E9F
S113173A20202000202020203C204D6F746F72202E
S10F174A3E2020202020202020006100F0
S9030000FC
